:100000000C9434000C943E000C943E000C943E0082
:100010000C943E000C943E000C943E000C943E0068
:100020000C943E000C943E000C943E000C943E0058
:100030000C943E000C943E000C943E000C943E0048
:100040000C943E000C943E000C943E000C943E0038
:100050000C943E000C943E000C943E000C943E0028
:100060000C943E000C943E0011241FBECFEFD8E04C
:10007000DEBFCDBF0E9440000C9473000C940000C2
:1000800082E084B91AB88CE08BB992E089B18370B0
:10009000A9F495B92FEF31EE84E021503040804033
:1000A000E1F700C0000015B82FEF31EE84E02150D9
:1000B00030408040E1F700C00000E8CF95B92FEF55
:1000C00039E688E1215030408040E1F700C000006F
:1000D00015B82FEF39E688E1215030408040E1F734
:0A00E00000C00000D3CFF894FFCF5A
:00000001FF
